:100000000C9411160C9442160C9442160C94421641
:100010000C9442160C9442160C9442160C94421600
:100020000C9442160C9442160C9442160C944216F0
:100030000C9442160C9442160C9442160C944216E0
:100040000C9442160C94A4160C9442160C9442166E
:100050000C9442160C9442160C943A2B0C945B931D
:100060000C9442160C948E7C0C9442160C944216FE
:100070000C9442160C9442160C9442160C944216A0
:100080000C9442160C9442160C9442160C94421690
:100090000C9442160C9442160C9442160C94421680
:1000A0000C9442160C9442160C9442160C94421670
:1000B0000C9442160C9442160C9442160C94421660
:1000C0000C9442160C9442160C9442160C94421650
:1000D0000C9442160C9442160C9442160C94421640
:1000E0000C9442169183E0811982CD831982198282
:1000F0001982198219821982198219821982198228
:100100001982198219821982198219821982198217
:100110001982198219821982198219821982198207
:10012000C783198219821982198219821982198248
:100130001982A0831982198219821982198219825F
:100140001982198219821982E48316826C906F9049
:100150005E9062906890A690739077907D90819069
:1001600085908B908F909390A69099909D90A19060
:1001700077927C9281928B9295920E939F92A79206
:10018000AF92B992C392CD92DC92E6920E93F09226
:10019000FA920493084AD73B3BCE016E84BCBFFD64
:1001A000C12F3D6C74319ABD56833DDA3D00C77F47
:1001B00011BED9E4BB4C3E916BAAAABE00000080E0
:1001C0003F05A84CCDB2D44EB93836A9020C50B96F
:1001D000918688083CA6AAAA2ABE000000803F009B
:1001E0004E414E494E495459494E46CDCCCC3D0A1C
:1001F000D7233C17B7D13877CC2B329595E6241FFF
:10020000B14F0A000020410000C84200401C4620B7
:10021000BCBE4CCA1B0E5AAEC59D74434F4D4D55C6
:100220004E49434154494F4E0044525952554E0095
:100230004552524F525300494E464F004543484F96
:100240000047322F47332062616420706172616D14
:1002500065746572730A00536C6565702E2E2E00EE
:100260003344205072696E746572207265616479DE
:100270002E00436C69636B20746F20726573756D1B
:10028000652E2E2E004E6F206D6F76652E0025692F
:10029000730025696D20256973002569682025692B
:1002A0006D2025697300256964202569682025690A
:1002B0006D202569730025697920256964202569E9
:1002C000682025696D20256973005072696E74205D
:1002D00074696D653A200050726F7465637465646B
:1002E0002050696E0A00452569202573003344209B
:1002F0005072696E7465722072656164792E003C7B
:10030000023702300229021B026F66660044454232
:1003100055473A004B494C4C45442E20004D313155
:10032000332053006F6B0048656174696E67206409
:100330006F6E652E0020573A004525692025730011
:100340003344205072696E746572207265616479FD
:100350002E003344205072696E746572204F6666B9
:100360002E004361703A454D455247454E43595F13
:100370005041525345523A300A004361703A43416A
:1003800053455F4C494748545F4252494748544E91
:100390004553533A300A004361703A544F47474C33
:1003A000455F4C49474854533A300A004361703A1C
:1003B000534F4654574152455F504F5745523A307C
:1003C0000A004361703A4C4556454C494E475F44DC
:1003D0004154413A300A004361703A5A5F50524FDB
:1003E00042453A300A004361703A4155544F4C45FA
:1003F00056454C3A300A004361703A5052494E54C7
:100400005F4A4F423A310A004361703A50524F47B7
:10041000524553533A300A004361703A4155544FA4
:100420005245504F52545F54454D503A310A0043A3
:1004300061703A454550524F4D3A300A0046495294
:100440004D574152455F4E414D453A4D61726C6981
:100450006E20312E312E3520284769746875622947
:1004600020534F555243455F434F44455F55524CCF
:100470003A68747470733A2F2F6769746875622EC6
:10048000636F6D2F4D61726C696E4669726D776135
:1004900072652F4D61726C696E2050524F544F43FC
:1004A0004F4C5F56455253494F4E3A312E30204DF6
:1004B000414348494E455F545950453A33442050D2
:1004C00072696E7465722045585452554445525FA6
:1004D000434F554E543A3220555549443A6365646A
:1004E00065326132662D343161322D343734382D26
:1004F000396231322D6335356336326633363766CD
:10050000660A002F2F20007A5F6D61783A2000790B
:100510005F6D696E3A2000785F6D696E3A20005217
:1005200065706F7274696E6720656E6473746F7046
:10053000207374617475730A004D31343520533C57
:10054000696E6465783E206F7574206F66207261F5
:100550006E67652028302D31290A0053657474694F
:100560006E672054726176656C20416363656C65CB
:10057000726174696F6E3A200053657474696E67B6
:10058000205265747261637420416363656C6572A7
:100590006174696F6E3A200053657474696E6720E8
:1005A0005072696E7420416363656C657261746931
:1005B0006F6E3A200053657474696E6720507269DB
:1005C0006E7420616E642054726176656C204163A4
:1005D00063656C65726174696F6E3A2000205A0021
:1005E000205900580020204D61783A2000205A0000
:1005F000205900580020204D696E3A20004F6E208F
:10060000004F666600536F667420656E6473746F86
:1006100070733A2000000136372603FF3C3D380E48
:10062000FF2E303EFF13FF0C0809FFFFFF1A1C18B6
:10063000FFFF24221EFFFF08440AFF43FFFFFFFFC6
:10064000FFFF20643A0020693A0020703A00000061
:10065000000000000000000048434F6666736574A8
:1006600073206170706C696564004572723A205441
:100670006F6F206661722100546F6F206661722077
:1006800066726F6D207265666572656E6365207057
:100690006F696E740A00454550524F4D206469736E
:1006A00061626C65640A004E6F2063617365206C43
:1006B000696768740A004572726F723A0041637428
:1006C0006976652045787472756465723A200055C4
:1006D0006E6B6E6F776E20636F6D6D616E643A2026
:1006E0002200456E6473746F707320256320256348
:1006F00020256320256300205A3A0020593A002023
:10070000583A00656E6473746F7073206869743A48
:1007100020006563686F3A0024F4D43050C38E2003
:10072000C2A24017828B7011127A910D816CD90A86
:10073000A861E108C7586607615143061E4B5D0575
:10074000C145A7041A411104093D980371393103C9
:100750004036DB0265339102D4305402802E1D02F4
:10076000632CEE01752AC501B028A0011027810174
:100770008F2564012B244B01E0223401AC211F01A1
:100780008D200D01801FFC00841EED00971DDF00F1
:10079000B81CD200E61BC600201BBC00641AB200C5
:1007A000B219A8000A19A0006A189900D11791007F
:1007B00040178B00B516840031167E00B315790002
:1007C0003A157300C7146F0058146A00EE136600E0
:1007D0008813630025135E00C7125B006C1257007C
:1007E00015125400C111510070114F0021114B001E
:1007F000D61049008D1047004610440002104200F8
:10080000C00F4000800F3E00420F3C00060F3B002F
:10081000CB0E3800930E37005C0E3500270E3400E7
:10082000F30D3200C10D3100900D3000600D2E002F
:10083000320D2D00050D2C00D90C2B00AE0C29001B
:10084000850C29005C0C2700350C27000E0C2600B7
:10085000E80B2400C40B2400A00B23007D0B230015
:100860005A0B2100390B2100180B2000F80A1F0039
:10087000D90A1E00BB0A1E009D0A1D00800A1D0029
:10088000630A1C00470A1B002C0A1B00110A1A00ED
:10089000F7091A00DD091900C4091900AB0919008C
:1008A000920917007B091800630917004C0916000C
:1008B00036091600200916000A091500F50815006A
:1008C000E0081400CC081400B8081400A4081400B0
:1008D000900813007D0812006B08130058081200DE
:1008E00046081200340811002308110012081100F4
:1008F00001081100F0071000E0071000D0071000F9
:10090000C0071000B0070F00A107100091070E00EC
:1009100083070F0074070F0065070E0057070E00CE
:1009200049070E003B070D002E070E0020070D00A3
:1009300013070D0006070D00F9060C00ED060D006B
:10094000E0060C00D4060C00C8060C00BC060C0027
:10095000B0060C00A4060B0099060C008D060B00D7
:1009600082060B0077060B006C060B0061060A007E
:1009700057060B004C060A0042060A0038060A0019
:100980002E060A0024060A001A060A0010060900AC
:1009900007060A00FD050900F4050900EB0509003A
:1009A000E2050900D9050900D0050900C7050900BD
:1009B000BE050900B5050800AD050800A50509003C
:1009C0009C050800940508008C05080084050800B3
:1009D0007C050800740508006C0507006505080023
:1009E0005D050700560508004E050700470507008E
:1009F0004005080038050700310507002A050700F3
:100A0000230507001C050600160507000F05070053
:100A10000805060002050700FB040600F5040700B0
:100A2000EE040600E8040600E2040700DB0406000A
:100A3000D5040600CF040600C9040600C30406005E
:100A4000BD040600B7040600B1040500AC040600AE
:100A5000A6040600A00405009B04060095040500FA
:100A6000900406008A040500850405008004060041
:100A70007A04050075040500700405006B04050088
:100A800066040500610405005C04050057040500C8
:100A9000520405004D040500480405004304050008
:100AA0003E0404003A040500350405003004040047
:100AB0002C04050027040400230405001E04040080
:100AC0001A04040016040500110404000D040400B7
:100AD000090405000404040000040400FC030400ED
:100AE000F8030400F4030400F0030400EC03040022
:100AF000E8030400E4030400E0030400DC03040052
:100B0000D8030400D4030400D0030400CC03040081
:100B1000C8030300C503030024F404D9201BC40C3C
:100B20005C0E9804C4095F0265077101F405F900C1
:100B3000FB04B30048048700C10369005803550053
:100B400003034500BE023A008402310053022A002A
:100B50002902250004022000E4011C00C80119003C
:100B6000AF011700980114008401130071011000F7
:100B70006101100051010E0043010D0036010B0010
:100B80002B010B0020010B00150109000C010900CD
:100B900003010800FB000800F3000800EB00070059
:100BA000E4000600DE000600D8000600D2000600C1
:100BB000CC000500C7000500C2000500BD00040010
:100BC000B9000400B5000400B1000400AD00040049
:100BD000A9000400A5000300A20003009F00040078
:100BE0009B0003009800030095000200930003009F
:100BF000900003008D0002008B00030088000200BB
:100C00008600020084000300810002007F000200D1
:100C10007D0002007B0002007900020077000100E5
:100C200076000200740002007200010071000200F0
:100C30006F0002006D0001006C0002006A000100FC
:100C40006900020067000100660001006500010004
:100C50006400020062000100610001006000010008
:100C60005F0002005D0001005C0001005B0001000C
:100C70005A0001005900010058000100570001000E
:100C8000560001005500010054000100530000000F
:100C9000530001005200010051000100500001000A
:100CA0004F0001004E0000004E0001004D00010009
:100CB0004C0001004B0000004B0001004A00010005
:100CC0004900010048000000480001004700010001
:100CD00046000000460001004500000045000100FC
:100CE00044000100430000004300010042000000F6
:100CF00042000100410000004100010040000100ED
:100D00003F0000003F0001003E0000003E000100E7
:100D10003D0000003D0001003C0000003C000000E0
:100D20003C0001003B0000003B0001003A000000D5
:100D30003A000100390000003900010038000000CD
:100D400038000000380001003700000037000100C3
:100D500036000000360000003600010035000000BB
:100D600035000000350001003400000034000000B0
:100D700034000100330000003300000033000100A4
:100D8000320000003200000032000100310000009B
:100D90003100000031000100300000003000000090
:100DA000300001002F0000002F0000002F00000085
:100DB0002F0001002E0000002E0000002E00010078
:100DC0002D0000002D0000002D0000002D0001006E
:100DD0002C0000002C0000002C0000002C00010062
:100DE0002B0000002B0000002B0000002B00010056
:100DF0002A0000002A0000002A0000002A0001004A
:100E0000290000002900000029000000290000003E
:100E10002900010028000000280000002800000030
:100E20002800000028000100270000002700000023
:100E30002700000027000000270001002600000016
:100E40002600000026000000260000002600010009
:100E500025000000250000002500000025000000FE
:100E600025000000250001002400000024000000EF
:100E700024000000240000002400010023000000E2
:100E800023000000230000002300000023000000D6
:100E900023000000230001002200000022000000C7
:100EA00022000000220000002200000022000100B9
:100EB00021000000210000002100000021000000AE
:100EC000210000002100000021000100200000009E
:100ED0002000000020000000200000002000000092
:100EE0002000000020000000200001001F00000082
:100EF0001F0000001F0000001F0000001F00000076
:100F00001F0000001F0001001E0000001E00000066
:100F10001E0000001E00000000060900FE070192EE
:100F2000032120FFFF08FF07FF000000060000016B
:100F3000070706020080808080800080030202068E
:100F40000105A0A00507070600005050F850F85012
:100F5000500507070600002078A07028F02005073C
:100F600007060000C0C810204098180507070600B3
:100F7000006090A040A89068020303060104C040EE
:100F8000800307070601002040808080402003077F
:100F9000070601008040202020408005050506004E
:100FA0000120A870A8200505050600012020F820D2
:100FB000200203030602FFC0408005010106000372
:100FC000F8020202060200C0C0050505060001087D
:100FD00010204080050707060000708888888888F0
:100FE0007003070706010040C040404040E005078D
:100FF00007060000708808708080F8050707060063
:1010000000F81020100808F005070706000010304F
:101010005090F81010050707060000F880F0080847
:101020008870050707060000708080F088887005CA
:101030000707060000F808102020202005070706F3
:1010400000007088887088887005070706000070A7
:10105000888878080870020505060200C0C000C034
:10106000C00206060602FFC0C000C0408004070799
:1010700006000010204080402010050303060002F7
:10108000F800F80407070601008040201020408087
:1010900005070706000070880810200020050707D4
:1010A00006000070880868A8A870050707060000F9
:1010B000708888F8888888050707060000F0888807
:1010C000F08888F005070706000070888080808817
:1010D00070050707060000F08888888888F00507F3
:1010E00007060000F88080F08080F80507070600FA
:1010F00000F88080F0808080050707060000708877
:1011000080B8888870050707060000888888F888F6
:101110008888010707060200808080808080800523
:10112000070706000038101010109060050707062A
:1011300000008890A0C0A0908805070706000080E6
:101140008080808080F805070706000088D8A8887E
:101150008888880507070600008888C8A8988888B6
:1011600005070706000070888888888870050707CB
:10117000060000F08888F0808080050707060000E0
:1011800070888888A89068050707060000F088889E
:10119000F0A0908805070706000078808070080896
:1011A000F0050707060000F8202020202020050772
:1011B0000706000088888888888870050707060069
:1011C00000888888888850200507070600008888DE
:1011D000888888A850050707060000888850205096
:1011E0008888050707060000888888502020200589
:1011F0000707060000F80810204080F803070706DC
:101200000100E08080808080E00505050600018007
:1012100040201008030707060100E02020202020BE
:10122000E0050303060004205088050101060000C4
:10123000F80202020602058040050505060000705E
:10124000087888780507070600008080B0C888887D
:10125000F005050506000070808088700507070608
:101260000000080868988888780505050600007061
:1012700088F880700507070600003048E0404040CD
:10128000400506060600FF70888878087005070785
:101290000600008080B0C888888801070706020021
:1012A000800080808080800308080601FF200020E5
:1012B000202020A040040707060000808090A0C0E6
:1012C000A090030707060100C04040404040E005F1
:1012D0000505060000D0A8A8A8A805050506000079
:1012E000B0C8888888050505060000708888887061
:1012F0000506060600FFF08888F0808005060606D1
:1013000000FF788888780808050505060000B0C841
:1013100080808005050506000070807008F00407D5
:10132000070600004040E04040403005050506004B
:101330000088888898680505050600008888885018
:10134000200505050600008888A8A85005050506A3
:10135000000088502050880506060600FF8888880F
:10136000780870050505060000F8102040F803070E
:101370000706010020404080404020010707060288
:101380000080808080808080030707060100804005
:1013900040204040800502020600026890000000E4
:1013A000060000000000060000000000060000002B
:1013B000000006000000000006000000000006001B
:1013C0000000000006000000000006000000000011
:1013D00006000000000006000000000006000000FB
:1013E00000000600000000000600000000000600EB
:1013F00000000000060000000000060000000000E1
:1014000006000000000006000000000006000000CA
:1014100000000600000000000600000000000600BA
:1014200000000000060000000000060000000000B0
:10143000060000000000060000000000060000009A
:10144000000006000000000006000000000006008A
:101450000000000006000000000006000000000080
:1014600006000000000006000001070706020080D9
:101470000080808080800507070600002070A8A0FB
:10148000A87020050707060000304040E04050A843
:1014900005050506000088705070880507070600DE
:1014A00000885020F820F8200107070602008080FD
:1014B00080008080800508080600003048205050D9
:1014C000209060030101060107A005070706000040
:1014D000F888B8B8B888F8050707060001700878DA
:1014E000887800F80505050600012850A050280559
:1014F0000303060001F80808020202060206408003
:10150000050707060000F888A88898A8F8050101D3
:10151000060006F8040404060003609090600507C6
:10152000070600002020F8202000F804050506002A
:101530000360902040F0030505060003E020E02052
:10154000E002020206020640800508080600FF8845
:1015500088888898E88080050707060000789898B2
:1015600078181818020202060202C0C0020202061F
:1015700002FF408003050506000340C04040E0052F
:101580000707060001708888887000F805050506C1
:101590000001A0502850A00507070600008890A869
:1015A00058B808080507070600008890B848982032
:1015B00038050808060000C040C048D838080805AB
:1015C00007070600002000204080887005080806F4
:1015D00000004020007088F8888805080806000090
:1015E0001020007088F88888050808060000205040
:1015F000007088F888880508080600006890007068
:1016000088F888880508080600005000708888F867
:1016100088880508080600002050207088F888880F
:101620000507070600003860A0B8E0A0B805080864
:101630000600FF708880808870206005080806001A
:1016400000402000F880F080F80508080600000837
:101650001000F880F080F80508080600002050000F
:10166000F880F080F80507070600005000F880F0C9
:1016700080F8030808060100804000E0404040E098
:10168000030808060100204000E0404040E0030855
:101690000806010040A000E0404040E003070706C4
:1016A0000100A000E0404040E00507070600007090
:1016B0004848E84848700508080600006890008817
:1016C000C8A8988805080806000040207088888807
:1016D00088700508080600001020708888888870C7
:1016E00005080806000020500070888888700508EA
:1016F0000806000068900070888888700508080651
:101700000000500070888888887005050506000173
:1017100088502050880508080600FF1070A8A8A867
:10172000A87040050808060000402088888888883E
:1017300070050808060000102088888888887005D1
:10174000080806000020500088888888700508086E
:101750000600005000888888888870050808060000
:101760000010208850202020200509090600FFC015
:1017700040704848704040E00408080601FF60904F
:1017800090A09090E08005080806000040200070BE
:10179000087888780508080600001020007008788E
:1017A00088780508080600002050007008788878BE
:1017B000050808060000689000700878887805071A
:1017C00007060000500070087888780508080600B1
:1017D000002050207008788878050606060000D0A2
:1017E0002878A0A8500506060600FF7080887020A3
:1017F000600508080600004020007088F880700529
:1018000008080600001020007088F880700508089D
:101810000600002050007088F88070050707060059
:101820000050007088F880700308080601008040AE
:101830000040C04040E0030808060100204000408E
:10184000C04040E003080806010040A00040C0403E
:1018500040E0030707060100A00040C04040E0054B
:101860000707060000A040A0107888700508080649
:101870000000689000B0C888888805080806000045
:101880004020007088888870050808060000102035
:1018900000708888887005080806000020500070D5
:1018A000888888700508080600006890007088889D
:1018B000887005070706000050007088888870054A
:1018C00005050600012000F800200507070600FFB7
:1018D0001070A8A8A8704005080806000040200065
:1018E0008888889868050808060000102000888805
:1018F00088986805080806000020500088888898A5
:101900006805070706000050008888889868050960
:10191000090600FF102000888888F808700407076F
:101920000601FFC04060506040E00508080600FF67
:10193000500088888878087070012C019001270178
:10194000B0012201C0011D01F001180110021301B4
:1019500030020E016002090190020401C002FF0082
:101960000003FA004003F5008003F000D003EB0011
:101970002004E6007004E100E004DC004005D7002C
:10198000C005D2004006CD00D006C8008007C300C5
:101990003008BE00F008B900C009B400B00AAF00BA
:1019A000B00BAA00D00CA500000EA000500F9B00A9
:1019B000C01096005012910000148C00C0158700D2
:1019C000B0178200B0197D00D01B7800001E730094
:1019D00040206E0090226900F024640040275F00E0
:1019E00090295A00E02B5500102E500020304B005B
:1019F00010324600E033410090353C00103737008C
:101A000070383200A0392D00B03A2800A03B2300E6
:101A1000603C1E00103D1900903D1400103E0F0068
:101A2000703E0A00C03E0500003F0000403FFBFF43
:101A3000803FF6FFC03FF1FF23646566696E652055
:101A40002044454641554C545F4B64200023646557
:101A500066696E65202044454641554C545F4B698C
:101A6000200023646566696E652020444546415523
:101A70004C545F4B702000504944204175746F7482
:101A8000756E652066696E6973686564212050759E
:101A90007420746865206C617374204B702C204B2B
:101AA0006920616E64204B6420636F6E7374616E95
:101AB00074732066726F6D2062656C6F7720696E3B
:101AC000746F20436F6E66696775726174696F6EBB
:101AD0002E680A00504944204175746F74756E6514
:101AE000206661696C6564212074696D656F757429
:101AF0000A00504944204175746F74756E65206604
:101B000061696C6564212054656D706572617475DE
:101B1000726520746F6F20686967680A00204B64E3
:101B20003A2000204B693A2000204B703A20000AEE
:101B300020436C617373696320504944200A00207C
:101B400054753A2000204B753A2000206D61783A98
:101B50002000206D696E3A200020643A2000206247
:101B60006961733A20006265640A002C20737973FE
:101B700074656D2073746F707065642120486561B1
:101B80007465725F49443A2000544845524D414CB7
:101B90002052554E4157415900546865726D616C31
:101BA0002052756E617761790048656174696E676E
:101BB000206661696C65640048656174696E6720C0
:101BC0006661696C6564004572723A204D494E54F5
:101BD000454D50004D494E54454D50207472696733
:101BE0006765726564004572723A204D41585445EC
:101BF0004D50004D415854454D50207472696767EF
:101C0000657265640020496E76616C696420657850
:101C1000747275646572200000000000000000000E
:101C200000003E43000034430000484300004843A6
:101C3000202F0020403A00205A3A0020593A002034
:101C4000436F756E7420583A0020453A00205A3A86
:101C50000020593A00583A00436F6E74726F6C005E
:101C6000507265706172650054756E6500496E66EC
:101C70006F2073637265656E00466C6F772032006B
:101C8000466C6F77203200466C6F77203200466CCE
:101C90006F77203100466C6F77203100466C6F778C
:101CA000203100466C6F7700466C6F7700466C6F92
:101CB000770046616E2073706565640046616E2032
:101CC00073706565640046616E20737065656400BD
:101CD0004E6F7A7A6C65004E6F7A7A6C65004E6F43
:101CE0007A7A6C650053706565640053706565644D
:101CF000005370656564004D61696E004D34323883
:101D0000005072656865617420504C4100436F6FEC
:101D10006C646F776E005072656865617420414233
:101D2000530044697361626C6520737465707065FB
:101D30007273004D38340053657420686F6D6520F0
:101D40006F666673657473004175746F20686F6D9C
:101D50006500473238004D6F766520617869730001
:101D60004D61696E004D6F76652058004D6F766548
:101D70002059004D6F7665205A004578747275645D
:101D800065723200457874727564657231004D6F0A
:101D9000766520302E316D6D004D6F766520316D8A
:101DA0006D004D6F76652031306D6D004D6F76653D
:101DB0002061786973004578747275646572004DAE
:101DC0006F7665205A004D6F76652059004D6F760D
:101DD0006520580000004842000048420000804052
:101DE000000000005761726E696E673A20486F6D9F
:101DF000696E672042756D702044697669736F72F1
:101E0000203C20310A000202040000A0400000A093
:101E10004000000040000034430000484300002020
:101E200041FFFF0148617264636F6465642044652B
:101E30006661756C742053657474696E6773204CA9
:101E40006F616465640A00B80B0000B80B000064A1
:101E500000000010270000B80B00000000964300AF
:101E60000096430000004000000040000096430040
:101E700000C8420000C84200007A450000F242005B
:101E8000007A43B80B0000B80B000064000000109B
:101E90002700000000964300009643000000400029
:101EA0000000400000C8420000C84200007A45001F
:101EB00000074320440020490020204D33303120CA
:101EC00050005049442073657474696E67733A0A10
:101ED0000020460020420020480020204D313435AB
:101EE0002053004D6174657269616C20686561748E
:101EF000757020706172616D65746572733A0A0065
:101F0000205A0020590020204D32303620580048F9
:101F10006F6D65206F66667365743A0A0020450030
:101F2000205A002059002058002042002054002050
:101F3000204D323035205300416476616E63656414
:101F40003A20533C6D696E5F6665656472617465C5
:101F50003E20543C6D696E5F74726176656C5F669D
:101F6000656564726174653E20423C6D696E5F73A5
:101F700065676D656E745F74696D655F6D733E2036
:101F8000583C6D61785F78795F6A65726B3E205A64
:101F90003C6D61785F7A5F6A65726B3E20453C6D8F
:101FA00061785F655F6A65726B3E0A0020540020AD
:101FB000520020204D323034205000416363656C64
:101FC00065726174696F6E2028756E6974732F7302
:101FD00032293A20503C7072696E745F61636365A8
:101FE0006C3E20523C726574726163745F6163631E
:101FF000656C3E20543C74726176656C5F6163630E
:10200000656C3E0A00204500205A0020590020201F
:102010004D3230312058004D6178696D756D204129
:102020006363656C65726174696F6E2028756E6993
:1020300074732F7332293A0A00204500205A002079
:10204000590020204D3230332058004D6178696DA1
:10205000756D206665656472617465732028756EA0
:102060006974732F73293A0A00204500205A002012
:10207000590020204D393220580053746570732068
:1020800070657220756E69743A0A0020204D3230F6
:10209000302044300A0020204D323030205431208E
:1020A000440020204D3230302044002044697361C8
:1020B000626C65640A0046696C616D656E742073BC
:1020C000657474696E67733A0020204D313439208D
:1020D00043203B20556E69747320696E2043656C04
:1020E000736975730A002020473231202020203B7D
:1020F00020556E69747320696E206D6D0A005265FB
:1021000073656E643A20006F6B00627573793A20D4
:1021100070617573656420666F7220696E70757486
:102120000A00627573793A20706175736564206680
:102130006F7220757365720A00627573793A207048
:10214000726F63657373696E670A004B494C4C4547
:10215000442E20004B494C4C20636175736564200C
:102160006279204B494C4C20627574746F6E2F70ED
:10217000696E0A004B494C4C45442E20004B494C9B
:102180004C2063617573656420627920746F6F20E1
:102190006D75636820696E61637469766520746922
:1021A0006D65202D2063757272656E7420636F6D8E
:1021B0006D616E643A2000506C65617365207265D4
:1021C000736574005052494E5445522048414C5456
:1021D0004544005072696E7465722068616C746564
:1021E000642E206B696C6C28292063616C6C6564BB
:1021F000210A002020506C616E6E65724275666621
:10220000657242797465733A2000204672656520D4
:102210004D656D6F72793A2000436F6D70696C6522
:10222000643A204D617220323620323031390A0052
:10223000207C20417574686F723A20286E6F6E653D
:102240002C2064656661756C7420636F6E666967C7
:10225000290A00323031372D30382D3238203132D2
:102260003A303000204C617374205570646174659D
:10227000643A2000312E312E350A004D61726C69AE
:102280006E0020536F6674776172652052657365C6
:10229000740A00205761746368646F672052657325
:1022A00065740A002042726F776E206F7574205239
:1022B000657365740A002045787465726E616C20E0
:1022C00052657365740A00506F77657255700A0025
:1022D00073746172740A0053746570732F6D6D00AE
:1022E0004A65726B00416363656C65726174696F06
:1022F0006E0056656C6F6369747900436F6E74721B
:102300006F6C0046696C2E204469612E20320046B5
:10231000696C2E204469612E20320046696C2E20A3
:102320004469612E20310046696C2E204469612E7B
:102330002031004F6666004F6E20004520696E20F8
:102340006D6D3300436F6E74726F6C005654726122
:1023500076206D696E005654726176206D696E004C
:102360005654726176206D696E00566D696E005626
:102370006D696E00566D696E00566D61782045007E
:10238000566D6178204500566D6178204500566D88
:102390006178205A00566D6178205A00566D617838
:1023A000205A00566D6178205900566D6178205989
:1023B00000566D6178205900566D6178205800569E
:1023C0006D6178205800566D61782058004D6F740B
:1023D000696F6E00416D6178204500416D61782024
:1023E0004500416D6178205A00416D6178205A00A6
:1023F000416D6178205900416D6178205900416D2F
:102400006178205800416D6178205800412D747228
:102410006176656C00412D74726176656C00412DAA
:102420007265747261637400412D726574726163C8
:102430007400416363656C00416363656C004D6FBC
:1024400074696F6E0056652D6A65726B0056652D56
:102450006A65726B0056652D6A65726B00567A2D3F
:102460006A65726B00567A2D6A65726B0056792D1B
:102470006A65726B0056792D6A65726B0056792D0C
:102480006A65726B0056782D6A65726B0056782DFE
:102490006A65726B0056782D6A65726B004D6F74B9
:1024A000696F6E004573746570732F6D6D004573B1
:1024B000746570732F6D6D005A73746570732F6D32
:1024C0006D005A73746570732F6D6D005973746568
:1024D00070732F6D6D005973746570732F6D6D007F
:1024E0005873746570732F6D6D00587374657073D5
:1024F0002F6D6D004D6F74696F6E00457874727545
:102500006465723200457874727564657231004D8D
:102510006F7665205A004D6F76652059004D6F76B5
:102520006520580050726570617265005265737461
:102530006F7265206661696C736166650046696CDF
:10254000616D656E74004D6F74696F6E0054656DDA
:102550007065726174757265004D61696E005072CC
:1025600065686561742041425320636F6E66005058
:1025700072656865617420504C4120636F6E66001F
:102580005049442D44005049442D44005049442DA5
:1025900049005049442D49005049442D50005049AC
:1025A000442D500020082046616374002008204616
:1025B000616374002008204D6178002008204D617F
:1025C00078002008204D6178002008204D696E00B9
:1025D0002008204D696E002008204D696E004F666E
:1025E00066004F6E20004175746F74656D70004613
:1025F000616E2073706565640046616E207370655E
:1026000065640046616E207370656564004E6F7A84
:102610007A6C65004E6F7A7A6C65004E6F7A7A6CD0
:102620006500436F6E74726F6C004E6F7A7A6C65E2
:10263000004E6F7A7A6C65004E6F7A7A6C65004650
:10264000616E2073706565640046616E207370650D
:1026500065640046616E2073706565640054656D45
:10266000706572617475726500656E71756575650A
:10267000696E672022004B494C4C45442E20005384
:10268000544F505045442E20005072696E7465724C
:102690002073746F707065642064756520746F209A
:1026A0006572726F72732E20466978207468652097
:1026B0006572726F7220616E6420757365204D398A
:1026C000393920746F20726573746172742E2028FA
:1026D00054656D70657261747572652069732072DE
:1026E000657365742E205365742069742061667467
:1026F00065722072657374617274696E67290A006D
:102700004E6F204C696E65204E756D626572207744
:1027100069746820636865636B73756D2C204C6108
:102720007374204C696E653A20004E6F20436865D3
:10273000636B73756D2077697468206C696E6520B2
:102740006E756D6265722C204C617374204C696EDD
:10275000653A2000636865636B73756D206D6973FE
:102760006D617463682C204C617374204C696E65D4
:102770003A20004C696E65204E756D626572206965
:1027800073206E6F74204C617374204C696E6520E9
:102790004E756D6265722B312C204C617374204C28
:1027A000696E653A20004D3131300000060900FEA7
:1027B000000000000001090008FE000005080806EE
:1027C000000040F0C88888987810050808060000C6
:1027D000C0F88888888888F805050506000120303B
:1027E000F830200508080600002070F8202020207E
:1027F000E00509090600FF2070A8A8B888887020A5
:102800000509090600FFE080C0B0A8283028280587
:1028100009090600FFF8A88888888888A8F8050AAA
:102820000A0600FE205050505088A8A88870030364
:102830000306000340A0401FFFFFFFFFFFFF6000F3
:1028400000000001FF400000000000FF80000000C9
:1028500000007F83CF00000C303F87FF80000C30EA
:102860001F867980000C000F8C30C7838C30E78C7A
:1028700030CFC7CC31F38C30DCECEC33B98C30D8B2
:102880006C6C33198C30D06C0C33198C30D86C0CC8
:1028900033198C30DC6C0E3B198C30CF7C079F19C0
:1028A0008C30C77C038F19400000000000026000DC
:1028B00000000000061FFFFFFFFFFFF85A0059004D
:1028C0005800092000000000000000000000000087
:1028D000007FFFE00000000000000000000000009A
:1028E0007000E00000000000000000000000006137
:1028F000F86000000000000000000000000041F847
:102900002000000000000000000000000040F02057
:1029100000000000000000000000000040602000F7
:1029200000000000000000000000005801A07F80AF
:10293000000000000000000000005C63A0FFC00079
:102940000000000000000000005EF7A0FFC00000D3
:1029500000000000000000005EF7A0FFC0000000C3
:10296000000000000000005C63A07F800000000009
:102970000000000000005801A07F8000000000005F
:102980000000000000406020FFC0000000000000C8
:102990000000000040F020FFC00000000000000028
:1029A00000000041F820FFC000000000000000000F
:1029B000000061F8603F000000000000000000001F
:1029C000007000E01E000000000000000000000099
:1029D0007FFFE00C0000000000000000000000008D
:1029E00000000000000000000000000000007FFF69
:1029F000E00000000000000000000000007000E0A7
:102A0000000000000000000000000000630C6000F7
:102A10000000000000000000000000470E20000041
:102A2000000000000000000000004F0F2000000028
:102A30000000000000000000005F0FA00000000088
:102A400000000000000000005E07A07F8000000082
:102A500000000000000000406020FFC000000000F7
:102A600000000000000040F020FFC0000000000057
:102A7000000000000040F020FFC000000000000047
:102A8000000000004060207F800000000000000087
:102A90000000005E07A07F80000000000000000032
:102AA00000005F0FA0FFC000000000000000000059
:102AB000004F0F20FFC000000000000000000000D9
:102AC000470E20FFC000000000000000000000636F
:102AD0000C603F00000000000000000000007000DB
:102AE000E01E00000000000000000000007FFFE08A
:102AF0000C000000000000000000000000000000CA
:102B0000002100240027002A002D0030003300019E
:102B1000010000040107010A01000022002500282D
:102B2000002B002E003100340002010000050108D6
:102B3000010B01000020002300260029002C002F9B
:102B4000003200000100000301060109010505052E
:102B500005070508080808020202020A0A08080414
:102B60000404040101010101010101030303030342
:102B7000030303040707070C0C0C0C0C0C0C0C02D1
:102B800002020206060606060606060B0B0B0B0BD8
:102B90000B0B0B01021020200808102040102040D1
:102BA0008002010201080402010102040810204011
:102BB000808040201008040201800402018040202F
:102BC0001008040201080402010102040810204058
:102BD00080010204081020408000000A0B02090C4A
:102BE0000D0E0807030401000000000000000000B3
:102BF00000000000000000000000000000000000D5
:102C00000000000000121110000000000000000091
:102C100000000000000000000000000000000000B4
:102C2000ACA911241FBECFEFD1E2DEBFCDBF00E0C3
:102C30000CBF13E0A0E0B2E0ECE5FFE601E00BBF63
:102C400002C007900D92A037B107D9F72FE0A0E797
:102C5000B3E001C01D92AF38B207E1F716E1C1E160
:102C6000D6E100E006C021970109802FFE010E94F5
:102C700069B7C031D10780E00807A9F70E94A59382
:102C80000C94ACB70C94000080916C0B80FF03C0D7
:102C900089988FEF02C0899A81E080932302809106
:102CA0006C0B84FF03C043988FEF02C0439A81E00E
:102CB0008093270280916C0B81FF03C08F9A8FEF66
:102CC00002C08F9881E08093240280916C0B9FB7A3
:102CD00082FF09C0F89480910B018D7F80930B01D6
:102CE0009FBF8FEF08C0F89480910B0182608093A2
:102CF0000B019FBF81E08093250280916C0BE091D6
:102D0000BD0BF091BE0B83FF08C08181811102C011
:102D1000169A01C043988FEF07C08181811102C0CC
:102D2000169801C0439A81E08093260208959091FD
:102D3000840D8091850D981731F08091850D8F5FFE
:102D40008F708093850D08951F920F920FB60F928A
:102D500011240BB60F92BF92CF92DF92EF92FF92A7
:102D60000F931F932F933F934F935F936F937F9393
:102D70008F939F93AF93BF93EF93FF93CF93DF9383
:102D800000D000D0CDB7DEB780916E008B7F8093EE
:102D90006E0080916F008D7F80936F007894C0905B
:102DA000910BD090920BE090930BF090940BC11488
:102DB000D104E104F104F1F1809116048823D1F1EA
:102DC0000E94C24B09EBC0160BE0D006E104F104EF
:102DD00088F018EBC11A1BE0D10AE108F108C09293
:102DE000910BD092920BE092930BF092940B88EBA4
:102DF0009BE009C0C6011092910B1092920B1092A9
:102E0000930B1092940B90938900809388002091EB
:102E100088003091890080918400909185004096CF
:102E20002817390708F097C6809184009091850093
:102E30004096D5C180916D0B90916E0B009769F013
:102E4000019790936E0B80936D0B1092BE0B1092B6
:102E5000BD0B6DDF88EC90E0C2C1E091BD0BF0913D
:102E6000BE0B309709F0C0C19091840D8091850D03
:102E7000981751F1E091850D21E5E29FF0011124B1
:102E8000E45AF94FC0909A0BD0909B0BE0909C0BAA
:102E9000F0909D0BCF01835B9F4FDC014D915D91C5
:102EA0006D917C91D701C601841B950BA60BB70BC6
:102EB00080939A0B90939B0BA0939C0BB0939D0BCC
:102EC0008081886080830BC08FB7F89410929A0B32
:102ED00010929B0B10929C0B10929D0B8FBFF09346
:102EE000BE0BE093BD0B309709F477C156A18091DA
:102EF0006C0B418158130AC0242F30E080912802C6
:102F0000082E000C990B2817390729F050936C0BE9
:102F100040932802B9DE10928D0B10928E0B109206
:102F20008F0B1092900BE091BD0BF091BE0B83AD17
:102F300094AD8134BCE99B0728F48132EEE49E070E
:102F400048F002C080E49CE9969587959695879510
:102F500024E007C08131F7E29F0730F0969587950E
:102F600022E020938C0B08C021E020938C0B803250
:102F7000910510F480E290E08C01005211091A834F
:102F80000983011528E01207D8F0E12FFF27EE0F83
:102F9000FF1FEE0FFF1FCF01885E944FFC0132969A
:102FA00045915491AA27059F9001049F210D3A1F36
:102FB00006942A1F3A1F1124FC01859194911FC089
:102FC00089819A81969587958C7F885E984FFC01C0
:102FD00045915491FC0132968591949169817A8151
:102FE00067707727689F9001699F300D789F300D3B
:102FF000112483E0369527958A95E1F7CA01821B53
:10300000930B8436910580F406EF12E0D8018D9180
:103010008D01882319F00E94A379F8CF89819A81C4
:103020000E940A7184E690E090938B0B80938A0B48
:1030300080918C0B8093890BE091BD0BF091BE0BBE
:10304000FF96808191819093880B8093870B8134C8
:10305000BCE99B0728F48132EEE49E0748F002C0E9
:1030600080E49CE9969587959695879524E007C01E
:103070008131F7E29F0730F09695879522E0209303
:103080008C0B08C021E020938C0B8032910510F44A
:1030900080E290E08C01005211091A830983011526
:1030A00028E01207D8F0E12FFF27EE0FFF1FEE0FE9
:1030B000FF1FCF01885E944FFC01329645915491D9
:1030C000AA27059F9001049F210D3A1F06942A1FED
:1030D0003A1F1124FC01859194911FC089819A8126
:1030E000969587958C7F885E984FFC014591549109
:1030F000FC0132968591949169817A816770772776
:10310000689F9001699F300D789F300D112463E016
:10311000369527956A95E1F7CA01821B930B843691
:10312000910580F406EF12E0D8018D918D0188237E
:1031300019F00E94A379F8CF89819A810E940A71BF
:1031400084E690E0AC0160E070E04093830B509324
:10315000840B6093850B7093860B9093890080930A
:103160008800E091BD0BF091BE0B86899789A08DF8
:10317000B18DB695A79597958795B095A0959095A3
:1031800081959F4FAF4FBF4F80937F0B9093800BE4
:10319000A093810BB093820B80937B0B90937C0B5D
:1031A000A0937D0BB0937E0B8093770B9093780B5D
:1031B000A093790BB0937A0B8093730B9093740B5D
:1031C000A093750BB093760B1092B90B1092BA0BBB
:1031D0001092BB0B1092BC0B07C080ED97E0909350
:1031E000890080938800B7C48091160481110E94E1
:1031F000C24B20918C0B222309F418C2E091BD0B25
:10320000F091BE0B42815381648175818091730B73
:103210009091740BA091750BB091760B840F951F54
:10322000A61FB71F8093730B9093740BA093750B1D
:10323000B093760B181619061A061B060CF4889A1A
:10324000E091BD0BF091BE0B428953896489758969
:1032500080916F0B9091700BA091710BB091720BDC
:10326000840F951FA61FB71F80936F0B9093700B51
:10327000A093710BB093720B181619061A061B0651
:103280000CF4419AE091BD0BF091BE0B4681578141
:10329000608571858091770B9091780BA091790B67
:1032A000B0917A0B840F951FA61FB71F8093770BE1
:1032B0009093780BA093790BB0937A0B181619069C
:1032C0001A061B060CF48E9AE091BD0BF091BE0B12
:1032D000428553856485758580917B0B90917C0B2D
:1032E000A0917D0BB0917E0B840F951FA61FB71F79
:1032F00080937B0B90937C0BA0937D0BB0937E0B04
:10330000181619061A061B0644F49FB7F894809104
:103310000B01886080930B019FBFE091BD0BF09182
:10332000BE0B468557856089718980917F0B90918E
:10333000800BA091810BB091820B840F951FA61F6B
:10334000B71F80937F0B9093800BA093810BB0935A
:10335000820B181619061A061B0634F48181811196
:1033600002C0149A01C0419A8091730B9091740B22
:10337000A091750BB091760B181619061A061B064C
:1033800084F5E091BD0BF091BE0B46895789608DA5
:10339000718D841B950BA60BB70B8093730B9093C9
:1033A000740BA093750BB093760B80912302409120
:1033B000B6035091B7036091B8037091B903082E1A
:1033C000000C990BAA0BBB0B840F951FA61FB71FF0
:1033D0008093B6039093B703A093B803B093B90357
:1033E00088988091770B9091780BA091790BB09190
:1033F0007A0B181619061A061B0684F5E091BD0B08
:10340000F091BE0B46895789608D718D841B950B99
:10341000A60BB70B8093770B9093780BA093790B47
:10342000B0937A0B809124024091BA035091BB0370
:103430006091BC037091BD03082E000C990BAA0B80
:10344000BB0B840F951FA61FB71F8093BA039093E1
:10345000BB03A093BC03B093BD038E9880916F0B08
:103460009091700BA091710BB091720B1816190608
:103470001A061B0684F5E091BD0BF091BE0B468940
:103480005789608D718D841B950BA60BB70B8093AC
:103490006F0B9093700BA093710BB093720B809194
:1034A00027024091C6035091C7036091C8037091F1
:1034B000C903082E000C990BAA0BBB0B840F951F98
:1034C000A61FB71F8093C6039093C703A093C8039A
:1034D000B093C903419880917B0B90917C0BA09194
:1034E0007D0BB0917E0B181619061A061B06BCF54B
:1034F000E091BD0BF091BE0B46895789608D718DAF
:10350000841B950BA60BB70B80937B0B90937C0BC6
:10351000A0937D0BB0937E0B809125024091BE035A
:103520005091BF036091C0037091C103082E000C3D
:10353000990BAA0BBB0B840F951FA61FB71F809377
:10354000BE039093BF03A093C003B093C1039FB782
:10355000F89480910B01877F80930B019FBF80912E
:103560007F0B9091800BA091810BB091820B18166C
:1035700019061A061B06ACF5E091BD0BF091BE0BC7
:1035800046895789608D718D841B950BA60BB70BEF
:1035900080937F0B9093800BA093810BB093820B51
:1035A000809126024091C2035091C3036091C403ED
:1035B0007091C503082E000C990BAA0BBB0B840F4E
:1035C000951FA61FB71F8093C2039093C303A093B8
:1035D000C403B093C5038181811102C0149801C056
:1035E00041988091B90B9091BA0BA091BB0BB0910F
:1035F000BC0B0196A11DB11D8093B90B9093BA0B22
:10360000A093BB0BB093BC0B2150E091BD0BF0918C
:10361000BE0B46895789608D718D84179507A60763
:10362000B70708F4E8CDBB24B39401C0B12CE091F6
:10363000BD0BF091BE0B8091B90B9091BA0BA0918C
:10364000BB0BB091BC0B428D538D648D758D4817AB
:1036500059076A077B0708F419C14091830B509101
:10366000840B6091850B7091860B02A113A124A19C
:1036700035A1AA27419FB12D529FC001629F900D95
:10368000619F800D911D429FB00D811D9A1F519F1A
:10369000B00D811D9A1F609FB00D811D9A1F509F14
:1036A000B10D8A1F9A1FB6958A1F9A1F349F800DED
:1036B000911D359F900D1124DF01DF962D913C91D6
:1036C000820F931F9093880B8093870B43AD54AD6B
:1036D00065AD76ADA0E0B0E0481759076A077B07F3
:1036E00020F45093880B4093870BE091870BF09167
:1036F000880BFA83E983E1340CE9F00720F4E13226
:10370000FE4478F004C020E43CE93A8329838981AF
:103710009A8196958795969587959A83898384E073
:103720000BC0A981BA81A131E7E2BE0740F0B6958E
:10373000A795BA83A98382E080938C0B0CC081E0AB
:1037400080938C0B09811A810032110520F420E24C
:1037500030E03A83298309811A81005211091A83C2
:103760000983011528E01207E8F0E12FFF27EE0F8B
:10377000FF1FEE0FFF1FCF01885E944FFC013296B2
:1037800025913491AA27039FA001029F410D5A1F42
:1037900006944A1F5A1F1124FC0125913491241BC1
:1037A000350B21C029813A81369527952C7F285EDB
:1037B000384FF90145915491F90132962591349190
:1037C00069817A8167707727629FC001639F900D3E
:1037D000729F900D1124F3E096958795FA95E1F785
:1037E0009A01281B390B2436310590F476EFE72E29
:1037F00072E0F72ED7018D917D01882319F00E9488
:10380000A379F8CF89819A810E940A7124E630E079
:1038100080911604882301F1C901293BBBE03B07D5
:10382000E0F068EB7BE00E9426B7883EE3E09E076D
:1038300018F48854944F02C088EB9BE0A901481B00
:10384000590B60E070E04093910B5093920B6093A2
:10385000930B7093940B01C0C901909389008093DE
:1038600088008091830B9091840BA091850BB0917F
:10387000860B820F931FA11DB11D8093830B909324
:10388000840BA093850BB093860B49C18091B90B33
:103890009091BA0BA091BB0BB091BC0B468D578D8C
:1038A00060A171A1481759076A077B0708F007C193
:1038B00000918D0B10918E0B20918F0B3091900BFE
:1038C00009831A832B833C8342A153A164A175A170
:1038D000AA27059FB12D169F7001269FF00C259FEA
:1038E000E00CF11C069FB00DE11CFA1E159FB00DF7
:1038F000E11CFA1E249FB00DE11CFA1E149FB10DAD
:10390000EA1EFA1EB695EA1EFA1E709FE00CF11C24
:10391000719FF00C11248091870B9091880BED5BC7
:10392000FF4FE816F90680F48E199F0940815181F6
:10393000628173816C01E12CF12CC416D506E60678
:10394000F70620F4CA0102C08081918181341CE90C
:10395000910728F481322EE4920748F002C080E4F7
:103960009CE9969587959695879524E007C08131C7
:1039700037E2930730F09695879522E020938C0BE1
:1039800008C021E020938C0B8032910510F480E276
:1039900090E08C01005211091E830D83011528E06F
:1039A0001207E8F0E12FFF27EE0FFF1FEE0FFF1FBA
:1039B000CF01885E944FFC01329625913491AA275D
:1039C000039FA001029F410D5A1F06944A1F5A1FD0
:1039D0001124FC0125913491241B350B21C02D812C
:1039E0003E81369527952C7F285E384FF901459109
:1039F0005491F9013296259134916D817E816770E1
:103A00007727629FC001639F900D729F900D1124D4
:103A100023E0969587952A95E1F79A01281B390BA3
:103A20002436310590F486EFE82E82E0F82ED70197
:103A30008D917D01882319F00E94A379F8CF8D81A3
:103A40009E810E940A7124E630E08091160488234A
:103A500001F1C901293BBBE03B07E0F068EB7BE0EB
:103A60000E9426B7883EE3E09E0718F48854944FDE
:103A700002C088EB9BE0A901481B590B60E070E095
:103A80004093910B5093920B6093930B7093940B14
:103A900001C0C901909389008093880089819A812F
:103AA000AB81BC81820F931FA11DB11D80938D0B33
:103AB00090938E0BA0938F0BB093900B30C02091FE
:103AC0008A0B30918B0B80911604882301F1293BDE
:103AD000FBE03F07E0F0C90168EB7BE00E9426B7FE
:103AE000883E03E0900718F48854944F02C088EB96
:103AF0009BE0A901481B590B60E070E04093910BDB
:103B00005093920B6093930B7093940B9C013093A2
:103B10008900209388008091890B80938C0B2091E1
:103B200088003091890080918400909185004096B2
:103B30002817390748F480918400909185004096B9
:103B40009093890080938800BB2029F01092BE0BCF
:103B50001092BD0BECD8F8948091C50B882321F00E
:103B600080916E008B7F03C080916E008460809393
:103B70006E0080916F00826080936F0026960FB672
:103B8000F894DEBF0FBECDBFDF91CF91FF91EF91D3
:103B9000BF91AF919F918F917F916F915F914F9165
:103BA0003F912F911F910F91FF90EF90DF90CF9059
:103BB000BF900F900BBE0F900FBE0F901F901895E7
:103BC000CF92DF92EF92FF92CF93DF936A017B0156
:103BD000FC018491EF012196882321F00E94A379B2
:103BE000FE01F7CF4AE0C701B601DF91CF91FF9008
:103BF000EF90DF90CF900C941D7ACF92DF92EF92EE
:103C0000FF92CF93DF936A017B01FC018491EF0166
:103C10002196882321F00E94A379FE01F7CF42E08C
:103C2000C701B601DF91CF91FF90EF90DF90CF9069
:103C30000C941D7C0F931F93CF93DF938B01FC019A
:103C40008491EF012196882321F00E94A379FE013F
:103C5000F7CFB801110F880B990BDF91CF911F910E
:103C60000F910C94887A0F931F93CF93DF938B015E
:103C7000FC018491EF012196882321F00E94A37911
:103C8000FE01F7CFE8018991882319F00E94A379FA
:103C9000FACFDF91CF911F910F9108954F925F92CC
:103CA0006F927F92AF92BF92CF92DF92EF92FF928C
:103CB0000F931F93CF93DF938C01EB01FC0143A47F
:103CC00054A465A476A4ABA4BCA4CDA4DEA49501A1
:103CD000A601C301B2010E944EB087FF40C0A301FC
:103CE0009201C301B2010E94B3B02B013C01F80163
:103CF00087A990ADA1ADB2ADBC01CD0190589B019B
:103D0000AC010E9462B4F80123A934A945A956A9BF
:103D10000E94B3B09B01AC01C301B2010E9461B427
:103D20000E94CDB67B018C019B01AC01B501C6019F
:103D30000E944EB087FF02C0750186019701A8015D
:103D4000B501C6010E944EB0882349F0C701D801D1
:103D50008BA79CA7ADA7BEA7888181608883DF91D0
:103D6000CF911F910F91FF90EF90DF90CF90BF9078
:103D7000AF907F906F905F904F90089586E40E947F
:103D80005D798093D90C882351F00E942A79609341
:103D9000330270933402809335029093360283E5A8
:103DA0000E945D79882351F00E942A7960933B023A
:103DB00070933C0280933D0290933E0282E40E9405
:103DC0005D79882351F00E942A79609337027093BD
:103DD00038028093390290933A0208954F925F928D
:103DE0006F927F928F929F92AF92BF92EF92FF92CB
:103DF0000F931F93CF93DF93C8E2D4E085E0E82EC2
:103E000084E0F82E05EF13E0412C512C320143944D
:103E10006991799189919991F70181909190A190FF
:103E2000B1907F010E9452B0A50194010E94B3B0ED
:103E30000E94ABB5F80161937193819391938F01C7
:103E4000461657066806790610F42B013C01F4E08B
:103E5000C833DF07E9F66FEF7FEFCB01A3019201D3
:103E60000E9426B4209344063093450640934606AC
:103E700050934706DF91CF911F910F91FF90EF90E4
:103E8000BF90AF909F908F907F906F905F904F907A
:103E900008952F923F924F925F926F927F928F92EE
:103EA0009F92AF92BF92CF92DF92EF92FF920F93C9
:103EB0001F93CF93DF9300D01F92CDB7DEB77B0166
:103EC0006A011901A5E0B4E02D913D914D915C91FD
:103ED000FC0160817181828193810E94B3B00E9454
:103EE00093B62B013C0104E71DE0D8016D937D934F
:103EF0008D939C9313972091090430910A0440916B
:103F00000B0450910C04F7016081718182819381CF
:103F10000E94B3B00E9493B64B015C01D801149685
:103F20006D937D938D939C93179720910D04309101
:103F30000E0440910F0450911004F60160817181CC
:103F4000828193810E94B3B00E9493B66B017C0181
:103F5000D80118966D937D938D939C931B97209118
:103F60001104309112044091130450911404F10192
:103F700060817181828193810E94B3B00E9493B667
:103F800069837A838B839C83D8011C966D937D9380
:103F90008D939C931F970E94A7328FB7F894E6EBFE
:103FA000F3E0408251826282738284829582A6828B
:103FB000B782C086D186E286F38629813A814B8119
:103FC0005C8124873587468757878FBF1092480DBD
:103FD0001092490D10924A0D10924B0D84E1ECE4C1
:103FE000FDE0DF011D928A95E9F70F900F900F9089
:103FF0000F90DF91CF911F910F91FF90EF90DF9085
:10400000CF90BF90AF909F908F907F906F905F9078
:104010004F903F902F9008950F931F93CF93DF936E
:10402000C8E4D6E002E116E029913991499159910D
:1040300060E070E080E89FE30E943EB5F801619384
:104040007193819391938F01F6E0CC35DF0761F78F
:1040500023E03DE04FEF5CE06BEF7CE087EF9CE01E
:1040600018DFDF91CF911F910F91B8CECF92DF92E1
:10407000EF92FF920F931F93CF93DF936C017A011E
:104080008B01C0E0D0E0CE15DF0581F0D8016D9145
:104090008D01D601ED91FC910190F081E02DC601DA
:1040A0001995892B11F02196EECF7E01C701DF9182
:1040B000CF911F910F91FF90EF90DF90CF900895D7
:1040C0000895FC01A681B7818281481B8581483013
:1040D00018F0A80FB11D4770382F369536953695D4
:1040E000562F577080E890E002C0959587955A95B5
:1040F000E2F7439F402D1124669566956695E62F5D
:10410000F0E0E40FF11DEA0FFB1F3081222311F0D4
:10411000832B02C0809583238083089580E00895D7
:104120000B96FC01849108950A96FC0184910895F0
:10413000FC0184910895FCDF882321F0823011F086
:1041400083E0089586E00895FC01E60FF11D849157
:1041500090E0982F88273196E4918E0F911D089555
:1041600068E0F2CF66E0F0CF81E008950E9477B773
:10417000FB014181DC0112962C911297421760F0ED
:1041800013962C911397241738F0608115962C9173
:10419000621710F4248195CF0895FC01308192813B
:1041A000930F92832181921760F494819F5F94838F
:1041B0008381830F821710F08FEF820F838381E05A
:1041C000089580E00895FC011282808181508383EC
:1041D00014820895DB01ED91FC9119940F93FC0179
:1041E0000150040F84A996A9941718F0081728F411
:1041F00002C0081750F0041740F42150260F83A97D
:1042000095A9961720F4281720F480E007C02817F6
:1042100020F481E0261710F0F8CF81E00F91089587
:104220005F926F927F928F929F92AF92BF92CF9246
:10423000DF92EF92FF920F931F93CF93DF93EC01E6
:10424000062F142FC22EEC80FD80C70171DFD82EFF
:104250008C819D8170DF982E21E0D21203C02FE067
:10426000A22E02C0AA24AA948C819D815DDFD82E43
:104270008C819D8155DFB82E8C819D8171DFE0E6B8
:10428000EC1538F4009729F0E80EF91E91E6D92EC6
:1042900010C08C819D8166DFF0E4FC1538F4009736
:1042A00029F0E80EF91E81E4D82E03C021E1E20EC8
:1042B000F11CBC1430F4188A1B8A1C8A198A1A8AC9
:1042C00096C0BD14C0F3892D90E0F70124912F3FD3
:1042D00021F4FFEFEF1AFF0A3FC0CD1034C08C81EC
:1042E0009D8126DF97012F5F3F4FF701882311F053
:1042F000823091F484918B8BF90124912C8BF701FE
:104300003396E491E88BF7013496E491E98BF70159
:104310003596E491EA8B25C08491982F9F70925036
:104320009A8B82958F70898BF9012491822F8F70DF
:104330008C8B22952F702B8BF7013296E491E295AE
:10434000EF70E88B0EC0F7013296E491EA219C01F0
:104350002E0F311DE20EF31EBD1409F4ACCFD39421
:10436000B4CFE114F10409F442C08C819D81E3DEF5
:10437000A82EDB88BC88C988C00E8A898B0D181BC3
:104380000B2D2D2D412F6C2DCE0128DF882369F1B7
:10439000EA0CF11C87E08D0DD82ED694D694D694D5
:1043A0005B2C510E4E01FCE18F0E911C6D2C712C7B
:1043B0005116D9F00C2D57018A2D8E198D1588F4C0
:1043C000F50184916A817B810C8F1D8F1F8E8E8FEA
:1043D00094014BE3CE01FEDEFFEFAF1ABF0A085F88
:1043E000EBCFE60CF71C1F5FE3CF888901C080E0AC
:1043F000DF91CF911F910F91FF90EF90DF90CF90C1
:10440000BF90AF909F908F907F906F905F90089536
:104410008F929F92AF92BF92CF92DF92EF92FF92D4
:10442000CF93FC01C080D180E280F38020E030E0B7
:10443000A901C701B6010E944EB087FF08C0C7019D
:10444000B601905820E030E048EC52E406C020E08D
:1044500030E048EC52E4C701B6010E94B3B00E94BC
:10446000A6B56B017C01603AF6E87F07F1E08F07A3
:10447000910584F020EA36E841E050E00E944DB713
:10448000CA01B9012AE030E040E050E00E944DB797
:10449000605D01C060E26093800E80E1C81687E233
:1044A000D806E104F10494F0C701B60120E137E237
:1044B00040E050E00E944DB7CA01B9012AE030E067
:1044C00040E050E00E944DB7605D01C060E2609343
:1044D000810EE8EECE16E3E0DE06E104F10494F08E
:1044E000C701B60128EE33E040E050E00E944DB72E
:1044F000CA01B9012AE030E040E050E00E944DB727
:10450000605D01C060E26093820EC701B60124E6DF
:1045100030E040E050E00E944DB78AE0882E912CB8
:10452000A12CB12CCA01B901A50194010E944DB77B
:10453000605D6093830E8EE28093840EC701B601A6
:10454000A50194010E944DB7C62FCA01B901A5016A
:1045500094010E944DB7605D6093850EC05DC0936D
:10456000860E80E89EE0CF91FF90EF90DF90CF9095
:10457000BF90AF909F908F9008958F929F92AF922F
:10458000BF92CF92DF92EF92FF92CF9320E030E084
:1045900048EC52E4FC0160817181828193810E9428
:1045A000B3B00E94A6B56B017C0197FF0AC0F094DE
:1045B000E094D094C094C11CD11CE11CF11C8DE28C
:1045C00001C08BE28093800EC701B60120E137E283
:1045D00040E050E00E944DB78AE0882E912CA12C3B
:1045E000B12CCA01B901A50194010E944DB7605DCB
:1045F0006093810EC701B60128EE33E040E050E041
:104600000E944DB7CA01B901A50194010E944DB79E
:10461000605D6093820EC701B60124E630E040E0A1
:1046200050E00E944DB7CA01B901A50194010E9452
:104630004DB7605D6093830E8EE28093840EC70158
:10464000B601A50194010E944DB7C62FCA01B90158
:10465000A50194010E944DB7605D6093850EC05D19
:10466000C093860E80E89EE0CF91FF90EF90DF90A0
:10467000CF90BF90AF909F908F9008958F929F9210
:10468000AF92BF92CF92DF92EF92FF92FC01C08077
:10469000D180E280F38020E030E0A901C701B601BB
:1046A0000E944EB087FF04C0C701B601905802C0F7
:1046B000C701B6010E94A6B56B017C016031F7E22B
:1046C0007F078105910584F020E137E240E050E06A
:1046D0000E944DB7CA01B9012AE030E040E050E045
:1046E0000E944DB7605D01C060E26093820E88EE6B
:1046F000C81683E0D806E104F10494F0C701B601BE
:1047000028EE33E040E050E00E944DB7CA01B90105
:104710002AE030E040E050E00E944DB7605D01C00B
:1047200060E26093830EE4E6CE16D104E104F10466
:1047300094F0C701B60124E630E040E050E00E946A
:104740004DB7CA01B9012AE030E040E050E00E94D4
:104750004DB7605D01C060E26093840EFAE0CF1651
:10476000D104E104F1049CF08AE0882E912CA12C64
:10477000B12CC701B601A50194010E944DB7CA0131
:10478000B901A50194010E944DB7605D01C060E2CE
:104790006093850EC701B6012AE030E040E050E0AA
:1047A0000E944DB7605D6093860E82E89EE0FF90A8
:1047B000EF90DF90CF90BF90AF909F908F90089533
:1047C00020E030E040E251E4FC01608171818281AF
:1047D00093810E94B3B00E94A6B59B0177FF06C0EB
:1047E00022273327261B370B8DE201C08BE28093F3
:1047F000810EC90168EE73E00E943AB7CB01EAE08E
:10480000F0E0BF010E943AB7805D8093820EC9013B
:1048100064E670E00E943AB7CB01BF010E943AB74C
:10482000805D8093830EC901BF010E943AB7282F93
:10483000CB01BF010E943AB7805D8093840E8EE267
:104840008093850E205D2093860E81E89EE008957A
:104850008F929F92AF92BF92CF92DF92EF92FF9290
:10486000CF9320E030E048EC52E4FC01608171819C
:10487000828193810E94B3B00E94A6B56B017C0136
:1048800097FD10C020E137E240E050E00E944DB7B4
:10489000CA01B9012AE030E040E050E00E944DB783
:1048A000605D09C0F094E094D094C094C11CD11C08
:1048B000E11CF11C6DE26093810EC701B60128EE88
:1048C00033E040E050E00E944DB78AE0882E912C02
:1048D000A12CB12CCA01B901A50194010E944DB7C8
:1048E000605D6093820EC701B60124E630E040E0CF
:1048F00050E00E944DB7CA01B901A50194010E9480
:104900004DB7605D6093830E8EE28093840EC70185
:10491000B601A50194010E944DB7C62FCA01B90185
:10492000A50194010E944DB7605D6093850EC05D46
:10493000C093860E81E89EE0CF91FF90EF90DF90CC
:10494000CF90BF90AF909F908F9008959C0197FF5C
:104950000AC0EE27FF27E81BF90BE436F1050CF43B
:104960004CC08DE230C0283E83E038073CF1C901DD
:1049700068EE73E00E943AB7CB01EAE0F0E0BF01D5
:104980000E943AB7805D8093830EC90164E670E0AF
:104990000E943AB7CB01BF010E943AB7805D809375
:1049A000840EC901BF010E943AB7CB01BF010E942A
:1049B0003AB7805D8093850EF9013EC0F901243637
:1049C0003105DCF080E28093830ECF0164E670E075
:1049D0000E943AB7CB012AE030E0B9010E943AB711
:1049E000805D8093840ECF01B9010E943AB7CB015C
:1049F000B9010E943AB7805D1DC080E28093830EAA
:104A00008093840EEA30F10584F037FF02C08DE216
:104A100001C080E28093840ECF016AE070E00E94C2
:104A20003AB7605D6093850E07C037FF02C08DE224
:104A300001C080E28093850ECF016AE070E00E94A1
:104A40003AB7805D8093860E83E89EE008959C01CE
:104A500097FD0EC08436910584F064E670E00E94F4
:104A60003AB7CB016AE070E00E943AB7805D06C0B9
:104A70003195219531098DE201C080E28093840E49
:104A80002A30310564F0EAE0F0E0C901BF010E947C
:104A90003AB7CB01BF010E943AB7805D01C080E206
:104AA0008093850EC9016AE070E00E943AB7805D8C
:104AB0008093860E84E89EE00895CF92DF92EF9275
:104AC000FF926B017C0183E3C816D104E104F10479
:104AD00068F082E3C81AD108E108F10862E370E0E7
:104AE00080E090E00E941793DBD6EDCFC701B601BE
:104AF0000E941793FF90EF90DF90CF90D1C6E09186
:104B00006E0EF0916F0E19940F931F93CF93DF9356
:104B1000982F862F8A01D22F692F0E94057D9091B0
:104B2000420D80916C0E891748F19091440D80914F
:104B30006B0E981718F1C4E1F8018491882331F0C5
:104B40000E945781C81B0F5F1F4FF6CFCC2329F05F
:104B500080E20E948471C150F9CF80916C0E9AE777
:104B60009093450D8093460D8D2F0E944E8480E2D8
:104B7000DF91CF911F910F910C948471DF91CF91B0
:104B80001F910F91089588E19FE00E94897181E053
:104B90008093A60B08950F931F930E944F9300914B
:104BA000B50B1091B60B2091B70B3091B80BDC010F
:104BB000CB01801B910BA20BB30BB7FD0CC086B1D0
:104BC00086FB992790F981E08927349B8260329B8C
:104BD00084608093B40B8091B40B81709091B40B7E
:104BE00091FD82609091B30B891731F18130A9F06A
:104BF00028F0823041F0833059F01CC0913089F0A8
:104C0000923099F017C0992361F0933071F012C07F
:104C1000913059F0923071F404C0992331F09330FF
:104C200049F49091B20B9F5F03C09091B20B9150E9
:104C30009093B20B8093B30B1F910F910895E7E40B
:104C4000F2E080E09191911102C090E203C08631C0
:104C500069F409C0863139F0E82FF0E0E95BFD4FD7
:104C600090838F5FF7CF10925D0208958F5FEACF38
:104C700042E450E0BC0187E492E00E949DB7DFDF90
:104C800083E080934602089567FF03C01092070DEA
:104C900060E02091070D30E0462F062E000C550BEA
:104CA000421753076CF06093070D42E450E0BC01DB
:104CB00087E492E00E94BFAFC2DF83E080934602A8
:104CC00008954F925F926F927F928F929F92AF92D0
:104CD000BF92CF92DF92EF92FF920F931F93CF93E9
:104CE000DF9300D01F92CDB7DEB7109129021F3F8E
:104CF000F9F00E944F93C090960BD090970BE090E4
:104D0000980BF090990BDC01CB018C199D09AE0931
:104D1000BF09B7FD0DC02091850D8091840D30E055
:104D200090E001968F7099272817390709F0F9C18B
:104D300032DF8091B40B82FF40C08091B10B8111B2
:104D40003EC081E08093B10B9091DA038927809374
:104D5000A50B1092DA0383E0809346021092B40B05
:104D60000E944F93DC01CB018C509E4FAF4FBF4F41
:104D70008093B50B9093B60BA093B70BB093B80B81
:104D800088E893E19C838B8382E090E09A83898317
:104D9000BE016D5F7F4FCE0101960E94F37216E057
:104DA000115069F086E89DE00E94A57762E070E00E
:104DB00080E090E00E941793F3CF1092B10B0E9415
:104DC0004F936B017C018091AD0B9091AE0BA09144
:104DD000AF0BB091B00BA7019601281B390B4A0B02
:104DE0005B0B57FF05C08091A40B882309F4EBC12E
:104DF000D701C6018C599F4FAF4FBF4F8093AD0B6A
:104E00009093AE0BA093AF0BB093B00B8091B20B0D
:104E100018162CF48091B20B843074F408C0809181
:104E2000B20B992781950CF4909504972CF48091FE
:104E3000A50B81119EC0AEC08091A30B882309F4FD
:104E400071C08091B20B6091B20B062E000C770BF3
:104E500018164CF477FF02C06D5F7F4F759567950C
:104E6000759567950BC077FF02C06D5F7F4F759595
:104E700067957595679571956195710980909F0B00
:104E80009090A00BA090A10BB090A20B8114910464
:104E9000A104B104D1F1072E000C880B990B0E94DC
:104EA00054B02B013C01C701B601681979098A0980
:104EB0009B090E9452B09B01AC01C301B2010E9448
:104EC0003EB520E030E04AE754E40E94B3B04B0125
:104ED0005C0120E030E040E253E40E9488B687FFA6
:104EE0000FC020E030E046E952E4C501B4010E9461
:104EF00088B687FD0AC02AE030E040E050E009C0F3
:104F000024E630E040E050E004C021E030E040E042
:104F100050E0C0929F0BD092A00BE092A10BF092B8
:104F2000A20B04C021E030E040E050E0A091B20BC1
:104F30000A2E000CBB0B0E9471B724E030E040E069
:104F400050E00E944DB78091700E9091710EA0912B
:104F5000720EB091730E820F931FA41FB51F809322
:104F6000700E9093710EA093720EB093730E109208
:104F7000B20BD701C6018856954CAF4FBF4F8093F7
:104F8000A90B9093AA0BA093AB0BB093AC0B81E051
:104F9000809346028091930290919402815B9D4799
:104FA00041F480912A02882309F4DDC08150809366
:104FB0002A022FB7F89480919A0B90919B0BA091A5
:104FC0009C0BB0919D0B2FBF3AE0B695A795979596
:104FD00087953A95D1F7009741E0A407B10520F0F5
:104FE0008FEF9FEFA0E0B0E0969587952091460265
:104FF000211105C03091A40B3111E1C055C00097BB
:1050000041F04091A70B5091A80B4817590708F0A1
:105010004BC08091A40B811111C0223050F024307C
:1050200028F0243031F41092460203C081E08093CE
:1050300046020E94517281E08093A40B84E00E949A
:10504000348481E080932E0DE0919302F0919402DC
:1050500019951092A50B8091A40B882351F00E9402
:105060004A7191E0811101C090E09093A40B8111ED
:105070008AC08090A70B9090A80BA12CB12C0E9405
:105080004F93DC01CB018C199D09AE09BF0988162D
:105090009906AA06BB0640F40E944F936C197D093D
:1050A0007093A80B6093A70B809193029091940248
:1050B000815B9D4721F080919E0B882379F088E9E0
:1050C000C80E8AE3D81EE11CF11CC092A90BD09235
:1050D000AA0BE092AB0BF092AC0B0FC08091A90B26
:1050E0009091AA0BA091AB0BB091AC0BC81AD90A46
:1050F000EA0AFB0AF7FE0E94EA7C8091A40B811168
:1051000062C080914602813049F008F45CC084306E
:1051100008F059C081E08093460255C010924602C3
:1051200052C024E01202F0011124E156FD4F20E0AC
:1051300030E040E752E460817181828193810E9476
:105140003EB5C090950B7B018C0123E03DE04FEF15
:105150005CE06BEF7CE087EF9CE00E94E2858FEFE4
:1051600080932902E5CD8CE080932A028091A70BE1
:105170009091A80B01979093A80B8093A70B81E0C7
:105180008093460216CF8090A70B9090A80BA12C7D
:10519000B12C0E944F93DC01CB018C199D09AE0903
:1051A000BF0988169906AA06BB0668F40E944F93A9
:1051B0006C197D097093A80B6093A70B04C000972E
:1051C00009F43CCF1ECF0F900F900F900F90DF91FE
:1051D000CF911F910F91FF90EF90DF90CF90BF90F4
:1051E000AF909F908F907F906F905F904F900895B9
:1051F0000E94347D3E98469A3C98449A3A98429A46
:10520000CADC1092B20B0895089580E090E00895F2
:10521000DF92EF92FF920F931F93CF93DF93EC01F6
:10522000D62E1CAD0BAD7C0184E0E80EF11CE98D9F
:10523000FA8DC7011995412F480F2D2D602FC701F9
:105240000E9410219BAD890F8BAF81E090E0DF9130
:10525000CF911F910F91FF90EF90DF9008951198DB
:105260002FB787FD71C0F894909102019E7F9093B3
:1052700002012FBF119A00001198282F220F9FB70B
:1052800086FD81C0F894809102018E7F8093020197
:105290009FBF119A00001198922F990F26FD6DC0A3
:1052A0002FB7F894809102018E7F809302012FBF67
:1052B000119A00001198892F880F2FB796FD58C0BA
:1052C000F894909102019E7F909302012FBF119A52
:1052D00000001198982F990F2FB786FD44C0F894BD
:1052E000809102018E7F809302012FBF119A0000EE
:1052F0001198892F880F2FB796FD30C0F8949091A0
:1053000002019E7F909302012FBF119A0000119815
:10531000982F990F2FB786FD1CC0F8948091020139
:105320008E7F809302012FBF119A0000119896FD85
:105330002FC09FB7F894809102018E7F8093020165
:105340009FBF119A00000895F89490910201916016
:105350008ECFF894809102018160E3CFF894909110
:1053600002019160CFCFF894809102018160BBCFA0
:10537000F894909102019160A7CF2FB7F894809193
:105380000201816092CFF8948091020181607ECF0A
:105390009FB7F894809102018160D0CF4F925F92C5
:1053A0006F927F928F929F92AF92BF92CF92DF9235
:1053B000EF92FF920F931F93CF93DF93ACE3B9E18A
:1053C00021E030E0FD0145915491841795070CF0E0
:1053D0005DC0B90161507109660F771F660F771FB5
:1053E000EB01C65CD64EFE01E590F490685C764E0B
:1053F000FB0145915491F901EE0FFF1FEE0FFF1FC6
:10540000E65CF64E05911491FE01A590B490FD0165
:10541000C591D491FB01C590D490BC01641B750B60
:10542000072E000C880B990B0E9454B02B013C01F5
:10543000B8016A197B09072E000C880B990B0E9492
:1054400054B09B01AC01C301B2010E94B3B04B0147
:105450005C01CC19DD09BE01DD0F880B990B0E94A0
:1054600054B09B01AC01C501B4010E943EB54B0193
:105470005C01B701FF0C880B990B0E9454B09B0193
:10548000AC01C501B4010E9462B411C02F5F3F4F4F
:1054900014962034310509F095CFE6E3FAE16591E1
:1054A0007491072E000C880B990B0E9454B0DF9169
:1054B000CF911F910F91FF90EF90DF90CF90BF9011
:1054C000AF909F908F907F906F905F904F900895D6
:1054D00060E08091EC0B9091ED0B60DF6093E60350
:1054E0007093E7038093E8039093E903A8958FB73F
:1054F000F8941092F00B8FBF0895CF92DF92EF9245
:10550000FF92C090E603D090E703E090E803F090AC
:10551000E9036091EA037091EB0366507109072E6D
:10552000000C880B990B0E9454B09B01AC01C70181
:10553000B6010E944EB087FF1FC020E030E040E07F
:1055400050E4C701B6010E9462B40E94ABB57093EB
:10555000EB0B6093EA0B0E944F93DC01CB01805E62
:10556000914BAF4FBF4F8093E60B9093E70BA09307
:10557000E80BB093E90B08C01092E60B1092E70B12
:105580001092E80B1092E90BFF90EF90DF90CF9014
:1055900008951092D90C1092EB031092EA0380E068
:1055A000ACDF0E9416711092EB031092EA0380E0C8
:1055B000A4DF1092C40B2C980895DF92EF92FF9213
:1055C0000F931F93CF93DF93F82ED62EE72E8A01E9
:1055D00080912102882309F439C0E6EBF6E084913A
:1055E000EF012196882321F00E94A379FE01F7CFD5
:1055F000ED2DFE2D8491EF012196882321F00E944C
:10560000A379FE01F7CFEBE6FBE18491EF01219650
:10561000882321F00E94A379FE01F7CFF7FC0BC08D
:105620006F2DFF0C770B880B990B0E94887A8AE00C
:105630000E94A3790BC0E6E6FBE18491EF0121967D
:10564000882321F00E94A379FE01F7CF8091C60B39
:10565000811108C01092210281E08093C60BC8011D
:105660000E946655DF91CF911F910F91FF90EF90AF
:10567000DF908FCF1F920F920FB60F9211240BB6AF
:105680000F920F931F932F933F934F935F936F93BB
:105690007F938F939F93AF93BF93CF93DF93EF93BA
:1056A000FF938091C50B8111E4C081E08093C50B0D
:1056B00080916E008B7F80936E007894809132028F
:1056C0008F3768F08F579091C40B9093FE0B9923FE
:1056D00011F02C9A01C02C981092FD0B09C09091EA
:1056E000FE0B891708F02C989091FD0B891740F05C
:1056F0002FB7F894909102019F7D909302012FBFE4
:105700008F5F809332029091FC0B81E08927809318
:10571000FC0B811140DA809130029091310281308E
:10572000910521F1B8F0029779F58091FB0B811179
:1057300003C088E08093FB0B8091FB0B815080932A
:10574000FB0B882309F181E090E090933102809374
:1057500030021AC088E080937B0085E480937C004F
:1057600080917A00806480937A000EC080917800E6
:10577000909179002091F10B3091F20B820F931FE1
:105780009093F20B8093F10BC0913002D0913102D3
:10579000209709F03FC080912F028F5F80311CF469
:1057A00080932F0237C010922F028091F00B81114D
:1057B0000BC08091F10B9091F20B9093ED0B8093C5
:1057C000EC0B81E08093F00B8AE0E1EFFBE0DF017E
:1057D0001D928A95E9F71092EF0B1092EE0B009153
:1057E000EC0B1091ED0B1195019511098091C10BF6
:1057F0009091C20B91958195910980179107ECF0DA
:1058000080912D0290912E02919581959109081712
:1058100019070CF1CE01019663E070E00E943AB7DF
:105820009093310280933002F8941092C50B8091CE
:105830006E00846080936E001CC08091EA0390919A
:10584000EB0318161906E4F646EE5BE163EF7BE125
:1058500080E0B3DED5CF8091EA039091EB03181678
:105860001906C4F647EC5BE164ED7BE180E0A5DE60
:10587000D1CFFF91EF91DF91CF91BF91AF919F91E8
:105880008F917F916F915F914F913F912F911F91D8
:105890000F910F900BBE0F900FBE0F901F90189599
:1058A0004F925F926F927F928F929F92AF92BF9230
:1058B000CF92DF92EF92FF92CF93DF93CDB7DEB717
:1058C0002C970FB6F894DEBF0FBECDBF8091F00BC2
:1058D000811115C02C960FB6F894DEBF0FBECDBF58
:1058E000DF91CF91FF90EF90DF90CF90BF90AF907E
:1058F0009F908F907F906F905F904F900895E8DD1C
:105900000E944F936B017C016091EA037091EB035D
:10591000072E000C880B990B0E9454B02B013C0100
:105920008090E6039090E703A090E803B090E9032D
:105930002091D40B3091D50B4091D60B5091D70BC1
:105940000E944EB081117BC08091E00B9091E10BE1
:105950008230910509F481C18330910509F4ADC10C
:10596000019709F4B9C16091BF0B7091C00B072E6C
:10597000000C880B990B0E9454B0A50194010E9461
:105980004EB087FF11C060912B0270912C02072E40
:10599000000C880B990B0E9454B0A50194010E9441
:1059A00088B618160CF467C060E06093C40B809151
:1059B000E60B9091E70BA091E80BB091E90B0097F3
:1059C000A105B105E9F0A7019601281B390B4A0B87
:1059D0005B0B57FD15C06091EA0B7091EB0B80E0FB
:1059E00090E00E9452B0A50194010E9488B618165A
:1059F0000CF089C149EA5BE168EB7BE180E0DDDD29
:105A00008091DC0B9091DD0BA091DE0BB091DF0B50
:105A1000A7019601281B390B4A0B5B0B57FD5ACF88
:105A200038E8C30E33E1D31EE11CF11CC092DC0B3D
:105A3000D092DD0BE092DE0BF092DF0B4BCF409269
:105A4000D40B5092D50B6092D60B7092D70B21E0FD
:105A50002D83198220E030E0A901C301B2010E9428
:105A600088B618160CF068C18D8199819093E10B6E
:105A70008093E00B6DCF4091EA035091EB035E837E
:105A80004D83BA01550F880B990B0E9454B0A501A4
:105A900094010E9461B469837A838B839C8320ED97
:105AA0003CEC4CE45DE36091700470917104809172
:105AB0007204909173040E94B3B02B013C012091B9
:105AC000D00B3091D10B4091D20B5091D30BC5012B
:105AD000B4010E9461B49B01AC01C301B2010E94F8
